{
  "contractName": "TicTacToeToken",
  "abi": [
    {
      "constant": true,
      "inputs": [],
      "name": "name",
      "outputs": [
        {
          "name": "",
          "type": "string"
        }
      ],
      "payable": false,
      "stateMutability": "view",
      "type": "function"
    },
    {
      "constant": true,
      "inputs": [],
      "name": "totalSupply",
      "outputs": [
        {
          "name": "",
          "type": "uint256"
        }
      ],
      "payable": false,
      "stateMutability": "view",
      "type": "function"
    },
    {
      "constant": true,
      "inputs": [],
      "name": "decimals",
      "outputs": [
        {
          "name": "",
          "type": "uint32"
        }
      ],
      "payable": false,
      "stateMutability": "view",
      "type": "function"
    },
    {
      "constant": true,
      "inputs": [],
      "name": "symbol",
      "outputs": [
        {
          "name": "",
          "type": "string"
        }
      ],
      "payable": false,
      "stateMutability": "view",
      "type": "function"
    },
    {
      "inputs": [],
      "payable": false,
      "stateMutability": "nonpayable",
      "type": "constructor"
    },
    {
      "anonymous": false,
      "inputs": [
        {
          "indexed": false,
          "name": "owner",
          "type": "address"
        },
        {
          "indexed": false,
          "name": "addresses",
          "type": "address"
        },
        {
          "indexed": false,
          "name": "_value",
          "type": "uint256"
        }
      ],
      "name": "Transfer",
      "type": "event"
    },
    {
      "constant": false,
      "inputs": [
        {
          "name": "to",
          "type": "address"
        },
        {
          "name": "value",
          "type": "uint256"
        }
      ],
      "name": "transfer",
      "outputs": [
        {
          "name": "sucess",
          "type": "bool"
        }
      ],
      "payable": false,
      "stateMutability": "nonpayable",
      "type": "function"
    }
  ],
  "bytecode": "0x608060405234801561001057600080fd5b506040805190810160405280600381526020017f54494300000000000000000000000000000000000000000000000000000000008152506002908051906020019061005c9291906101ec565b506040805190810160405280600e81526020017f546963546163546f65546f6b656e000000000000000000000000000000000000815250600190805190602001906100a89291906101ec565b506005600360006101000a81548163ffffffff021916908363ffffffff16021790555061271060008190555033600560006101000a81548173ffffffffffffffffffffffffffffffffffffffff021916908373ffffffffffffffffffffffffffffffffffffffff160217905550600054600460003373ffffffffffffffffffffffffffffffffffffffff1673ffffffffffffffffffffffffffffffffffffffff168152602001908152602001600020819055507fddf252ad1be2c89b69c2b068fc378daa952ba7f163c4a11628f55a4df523b3ef600033600054604051808473ffffffffffffffffffffffffffffffffffffffff1681526020018373ffffffffffffffffffffffffffffffffffffffff1673ffffffffffffffffffffffffffffffffffffffff168152602001828152602001935050505060405180910390a1610291565b828054600181600116156101000203166002900490600052602060002090601f016020900481019282601f1061022d57805160ff191683800117855561025b565b8280016001018555821561025b579182015b8281111561025a57825182559160200191906001019061023f565b5b509050610268919061026c565b5090565b61028e91905b8082111561028a576000816000905550600101610272565b5090565b90565b6103e9806102a06000396000f30060806040526004361061006d576000357c0100000000000000000000000000000000000000000000000000000000900463ffffffff16806306fdde031461007257806318160ddd14610102578063313ce5671461012d57806395d89b4114610164578063a9059cbb146101f4575b600080fd5b34801561007e57600080fd5b50610087610259565b6040518080602001828103825283818151815260200191508051906020019080838360005b838110156100c75780820151818401526020810190506100ac565b50505050905090810190601f1680156100f45780820380516001836020036101000a031916815260200191505b509250505060405180910390f35b34801561010e57600080fd5b506101176102f7565b6040518082815260200191505060405180910390f35b34801561013957600080fd5b506101426102fd565b604051808263ffffffff1663ffffffff16815260200191505060405180910390f35b34801561017057600080fd5b50610179610313565b6040518080602001828103825283818151815260200191508051906020019080838360005b838110156101b957808201518184015260208101905061019e565b50505050905090810190601f1680156101e65780820380516001836020036101000a031916815260200191505b509250505060405180910390f35b34801561020057600080fd5b5061023f600480360381019080803573ffffffffffffffffffffffffffffffffffffffff169060200190929190803590602001909291905050506103b1565b604051808215151515815260200191505060405180910390f35b60018054600181600116156101000203166002900480601f0160208091040260200160405190810160405280929190818152602001828054600181600116156101000203166002900480156102ef5780601f106102c4576101008083540402835291602001916102ef565b820191906000526020600020905b8154815290600101906020018083116102d257829003601f168201915b505050505081565b60005481565b600360009054906101000a900463ffffffff1681565b60028054600181600116156101000203166002900480601f0160208091040260200160405190810160405280929190818152602001828054600181600116156101000203166002900480156103a95780601f1061037e576101008083540402835291602001916103a9565b820191906000526020600020905b81548152906001019060200180831161038c57829003601f168201915b505050505081565b600060019050929150505600a165627a7a72305820a43efbd4ecb32b565337ae48aca43333b78cabbeaed3404cf0f7f8a4932c26250029",
  "source": "pragma solidity ^0.4.24;  \n\n//contract address = 0xc7331c2b73f760197f2eaaa82079ac0ca06b2f1a\n\n\n\nimport \"openzeppelin-solidity/contracts/token/ERC20/StandardToken.sol\";  \nimport \"openzeppelin-solidity/contracts/ownership/Ownable.sol\";  \n\n   \n/**  \n* @title TicTacToe is a basic ERC20 Token  \n*/  \ncontract TicTacToeToken {  \n\n  event Transfer(\n        address owner,\n        address addresses,\n        uint _value\n        );\n  uint256 public totalSupply;  \n  string public name;  \n  string public symbol;  \n  uint32 public decimals; \n   \n  mapping ( address => uint256) balances;\n  address owner;\n  /**  \n * @dev assign totalSupply to account creating this contract */  constructor() public {  \n  symbol = \"TIC\";  \n  name = \"TicTacToeToken\";  \n  decimals = 5;  \n  totalSupply = 10000;  \n  \n  owner = msg.sender;  \n  balances[msg.sender] = totalSupply;  \n  \n  emit Transfer(0x0, msg.sender, totalSupply);  \n }\n\n  function transfer(address to, uint value) public returns (bool sucess){\n        return true;\n  }\n\n \n }",
  "sourcePath": "/home/nimesh/Desktop/daap/contracts/TicTacToeToken.sol",
  "compiler": {
    "name": "solc",
    "version": "0.4.24+commit.e67f0147.Emscripten.clang"
  },
  "schemaVersion": "2.0.1",
  "updatedAt": "2019-07-08T02:04:02.039Z"
}