{
  "contractName": "TicTacToe",
  "abi": [
    {
      "anonymous": false,
      "inputs": [
        {
          "indexed": false,
          "name": "gameId",
          "type": "uint256"
        },
        {
          "indexed": false,
          "name": "creator",
          "type": "address"
        }
      ],
      "name": "GameCreated",
      "type": "event"
    },
    {
      "anonymous": false,
      "inputs": [
        {
          "indexed": false,
          "name": "gameId",
          "type": "uint256"
        },
        {
          "indexed": false,
          "name": "player",
          "type": "address"
        },
        {
          "indexed": false,
          "name": "playerNumber",
          "type": "uint8"
        }
      ],
      "name": "PlayerJoinedGame",
      "type": "event"
    },
    {
      "anonymous": false,
      "inputs": [
        {
          "indexed": false,
          "name": "gameId",
          "type": "uint256"
        },
        {
          "indexed": false,
          "name": "player",
          "type": "address"
        },
        {
          "indexed": false,
          "name": "xCoordinate",
          "type": "uint256"
        },
        {
          "indexed": false,
          "name": "yCoordinate",
          "type": "uint256"
        }
      ],
      "name": "PlayerMadeMove",
      "type": "event"
    },
    {
      "anonymous": false,
      "inputs": [
        {
          "indexed": false,
          "name": "gameId",
          "type": "uint256"
        },
        {
          "indexed": false,
          "name": "winner",
          "type": "uint8"
        }
      ],
      "name": "GameOver",
      "type": "event"
    },
    {
      "constant": false,
      "inputs": [
        {
          "name": "to",
          "type": "address"
        },
        {
          "name": "value",
          "type": "uint256"
        }
      ],
      "name": "buyToken",
      "outputs": [
        {
          "name": "success",
          "type": "bool"
        }
      ],
      "payable": false,
      "stateMutability": "nonpayable",
      "type": "function"
    },
    {
      "constant": false,
      "inputs": [],
      "name": "newGame",
      "outputs": [
        {
          "name": "gameId",
          "type": "uint256"
        }
      ],
      "payable": false,
      "stateMutability": "nonpayable",
      "type": "function"
    },
    {
      "constant": false,
      "inputs": [
        {
          "name": "_gameId",
          "type": "uint256"
        }
      ],
      "name": "joinGame",
      "outputs": [
        {
          "name": "success",
          "type": "bool"
        },
        {
          "name": "reason",
          "type": "string"
        }
      ],
      "payable": false,
      "stateMutability": "nonpayable",
      "type": "function"
    },
    {
      "constant": false,
      "inputs": [
        {
          "name": "_gameId",
          "type": "uint256"
        },
        {
          "name": "_xCoordinate",
          "type": "uint256"
        },
        {
          "name": "_yCoordinate",
          "type": "uint256"
        }
      ],
      "name": "makeMove",
      "outputs": [
        {
          "name": "success",
          "type": "bool"
        },
        {
          "name": "reason",
          "type": "string"
        }
      ],
      "payable": false,
      "stateMutability": "nonpayable",
      "type": "function"
    }
  ],
  "bytecode": "0x608060405234801561001057600080fd5b5061185e806100206000396000f300608060405260043610610062576000357c0100000000000000000000000000000000000000000000000000000000900463ffffffff16806368f8fc10146100675780637d03f5f3146100cc578063cfc2f5ff146100f7578063efaa55a0146101bc575b600080fd5b34801561007357600080fd5b506100b2600480360381019080803573ffffffffffffffffffffffffffffffffffffffff1690602001909291908035906020019092919050505061026d565b604051808215151515815260200191505060405180910390f35b3480156100d857600080fd5b506100e161035a565b6040518082815260200191505060405180910390f35b34801561010357600080fd5b5061013660048036038101908080359060200190929190803590602001909291908035906020019092919050505061051f565b604051808315151515815260200180602001828103825283818151815260200191508051906020019080838360005b83811015610180578082015181840152602081019050610165565b50505050905090810190601f1680156101ad5780820380516001836020036101000a031916815260200191505b50935050505060405180910390f35b3480156101c857600080fd5b506101e7600480360381019080803590602001909291905050506109b0565b604051808315151515815260200180602001828103825283818151815260200191508051906020019080838360005b83811015610231578082015181840152602081019050610216565b50505050905090810190601f16801561025e5780820380516001836020036101000a031916815260200191505b50935050505060405180910390f35b6000808073ffffffffffffffffffffffffffffffffffffffff1663a9059cbb85856040518363ffffffff167c0100000000000000000000000000000000000000000000000000000000028152600401808373ffffffffffffffffffffffffffffffffffffffff1673ffffffffffffffffffffffffffffffffffffffff16815260200182815260200192505050602060405180830381600087803b15801561031357600080fd5b505af1158015610327573d6000803e3d6000fd5b505050506040513d602081101561033d57600080fd5b810190808051906020019092919050505091508191505092915050565b6000610364611614565b60018160600190600281111561037657fe5b9081600281111561038357fe5b8152505060016000815480929190600101919050555080600080600154815260200190815260200160002060008201518160000160006101000a81548173ffffffffffffffffffffffffffffffffffffffff021916908373ffffffffffffffffffffffffffffffffffffffff16021790555060208201518160010160006101000a81548173ffffffffffffffffffffffffffffffffffffffff021916908373ffffffffffffffffffffffffffffffffffffffff16021790555060408201518160010160146101000a81548160ff0219169083600381111561046057fe5b021790555060608201518160010160156101000a81548160ff0219169083600281111561048957fe5b02179055506080820151816002019060036104a592919061168d565b509050507fc3e0f84839dc888c892a013d10c8f9d6dc05a21a879d0ce468ca558013e9121c60015433604051808381526020018273ffffffffffffffffffffffffffffffffffffffff1673ffffffffffffffffffffffffffffffffffffffff1681526020019250505060405180910390a160015491505090565b600060606000806001548711156105715760006040805190810160405280601481526020017f4e6f20737563682067616d65206578697374732e000000000000000000000000815250935093506109a6565b60008088815260200190815260200160002091506000600381111561059257fe5b8260010160149054906101000a900460ff1660038111156105af57fe5b1415156105f75760006040805190810160405280601b81526020017f5468652067616d652068617320616c726561647920656e6465642e0000000000815250935093506109a6565b61060082610d47565b73ffffffffffffffffffffffffffffffffffffffff163373ffffffffffffffffffffffffffffffffffffffff161415156106755760006040805190810160405280601481526020017f4974206973206e6f7420796f7572207475726e2e000000000000000000000000815250935093506109a6565b6000600281111561068257fe5b826002018760038110151561069357fe5b01866003811015156106a157fe5b602091828204019190069054906101000a900460ff1660028111156106c257fe5b141515610731576000606060405190810160405280603181526020017f546865726520697320616c72656164792061206d61726b20617420746865206781526020017f6976656e20636f6f7264696e617465732e000000000000000000000000000000815250935093506109a6565b8160010160159054906101000a900460ff16826002018760038110151561075457fe5b018660038110151561076257fe5b602091828204019190066101000a81548160ff0219169083600281111561078557fe5b02179055507faa03b0eb53c70f6640eba4234ad2c58782c8927e7abf7d3a6e2c45d07ca9d58387338888604051808581526020018473ffffffffffffffffffffffffffffffffffffffff1673ffffffffffffffffffffffffffffffffffffffff16815260200183815260200182815260200194505050505060405180910390a16108b082600201600380602002604051908101604052809291906000905b828210156108a757838201600380602002604051908101604052809291908260038015610893576020028201916000905b82829054906101000a900460ff16600281111561086d57fe5b815260200190600101906020826000010492830192600103820291508084116108545790505b505050505081526020019060010190610823565b50505050610e0a565b9050600060038111156108bf57fe5b8160038111156108cb57fe5b14151561098557808260010160146101000a81548160ff021916908360038111156108f257fe5b02179055507f132b564c6f96092065580fd28989d181dfbbfe4aa2fb7fb1eda8af68ba3073e087826040518083815260200182600381111561093057fe5b60ff1681526020019250505060405180910390a160016040805190810160405280601181526020017f5468652067616d65206973206f7665722e000000000000000000000000000000815250935093506109a6565b61098e82610f3d565b60016020604051908101604052806000815250935093505b5050935093915050565b60006060600080600154851115610a025760006040805190810160405280601481526020017f4e6f20737563682067616d65206578697374732e00000000000000000000000081525093509350610d40565b3391506000808681526020019081526020016000209050600073ffffffffffffffffffffffffffffffffffffffff168160000160009054906101000a900473ffffffffffffffffffffffffffffffffffffffff1673ffffffffffffffffffffffffffffffffffffffff161415610b7b57818160000160006101000a81548173ffffffffffffffffffffffffffffffffffffffff021916908373ffffffffffffffffffffffffffffffffffffffff1602179055507f8f5866c09e99941481e2be79d3a7698371543fe3ad3387b903553fd6043e8550858360016002811115610ae557fe5b604051808481526020018373ffffffffffffffffffffffffffffffffffffffff1673ffffffffffffffffffffffffffffffffffffffff1681526020018260ff1660ff168152602001935050505060405180910390a160016040805190810160405280601581526020017f4a6f696e656420617320706c61796572206f6e652e000000000000000000000081525093509350610d40565b600073ffffffffffffffffffffffffffffffffffffffff168160010160009054906101000a900473ffffffffffffffffffffffffffffffffffffffff1673ffffffffffffffffffffffffffffffffffffffff161415610d0357818160010160006101000a81548173ffffffffffffffffffffffffffffffffffffffff021916908373ffffffffffffffffffffffffffffffffffffffff1602179055507f8f5866c09e99941481e2be79d3a7698371543fe3ad3387b903553fd6043e85508583600280811115610c4657fe5b604051808481526020018373ffffffffffffffffffffffffffffffffffffffff1673ffffffffffffffffffffffffffffffffffffffff1681526020018260ff1660ff168152602001935050505060405180910390a16001606060405190810160405280603981526020017f4a6f696e656420617320706c617965722074776f2e20506c61796572206f6e6581526020017f2063616e206d616b6520746865206669727374206d6f76652e0000000000000081525093509350610d40565b60006040805190810160405280601081526020017f416c6c2073656174732074616b656e2e00000000000000000000000000000000815250935093505b5050915091565b600060016002811115610d5657fe5b8260010160159054906101000a900460ff166002811115610d7357fe5b1415610da5578160000160009054906101000a900473ffffffffffffffffffffffffffffffffffffffff169050610e05565b600280811115610db157fe5b8260010160159054906101000a900460ff166002811115610dce57fe5b1415610e00578160010160009054906101000a900473ffffffffffffffffffffffffffffffffffffffff169050610e05565b600090505b919050565b600080610e1683610fc2565b905060016002811115610e2557fe5b816002811115610e3157fe5b1415610e405760019150610f37565b600280811115610e4c57fe5b816002811115610e5857fe5b1415610e675760029150610f37565b610e7083611148565b905060016002811115610e7f57fe5b816002811115610e8b57fe5b1415610e9a5760019150610f37565b600280811115610ea657fe5b816002811115610eb257fe5b1415610ec15760029150610f37565b610eca836112ce565b905060016002811115610ed957fe5b816002811115610ee557fe5b1415610ef45760019150610f37565b600280811115610f0057fe5b816002811115610f0c57fe5b1415610f1b5760029150610f37565b610f2483611576565b15610f325760039150610f37565b600091505b50919050565b60016002811115610f4a57fe5b8160010160159054906101000a900460ff166002811115610f6757fe5b1415610f985760028160010160156101000a81548160ff02191690836002811115610f8e57fe5b0217905550610fbf565b60018160010160156101000a81548160ff02191690836002811115610fb957fe5b02179055505b50565b600080600090505b60038160ff16101561113d57828160ff16600381101515610fe757fe5b60200201516001600381101515610ffa57fe5b6020020151600281111561100a57fe5b838260ff1660038110151561101b57fe5b6020020151600060038110151561102e57fe5b6020020151600281111561103e57fe5b1480156110b05750828160ff1660038110151561105757fe5b6020020151600260038110151561106a57fe5b6020020151600281111561107a57fe5b838260ff1660038110151561108b57fe5b6020020151600160038110151561109e57fe5b602002015160028111156110ae57fe5b145b80156110fb5750600060028111156110c457fe5b838260ff166003811015156110d557fe5b602002015160006003811015156110e857fe5b602002015160028111156110f857fe5b14155b1561113057828160ff1660038110151561111157fe5b6020020151600060038110151561112457fe5b60200201519150611142565b8080600101915050610fca565b600091505b50919050565b600080600090505b60038160ff1610156112c35782600160038110151561116b57fe5b60200201518160ff1660038110151561118057fe5b6020020151600281111561119057fe5b83600060038110151561119f57fe5b60200201518260ff166003811015156111b457fe5b602002015160028111156111c457fe5b14801561123657508260026003811015156111db57fe5b60200201518160ff166003811015156111f057fe5b6020020151600281111561120057fe5b83600160038110151561120f57fe5b60200201518260ff1660038110151561122457fe5b6020020151600281111561123457fe5b145b801561128157506000600281111561124a57fe5b83600060038110151561125957fe5b60200201518260ff1660038110151561126e57fe5b6020020151600281111561127e57fe5b14155b156112b65782600060038110151561129557fe5b60200201518160ff166003811015156112aa57fe5b602002015191506112c8565b8080600101915050611150565b600091505b50919050565b60008160016003811015156112df57fe5b602002015160016003811015156112f257fe5b6020020151600281111561130257fe5b82600060038110151561131157fe5b6020020151600060038110151561132457fe5b6020020151600281111561133457fe5b1480156113a2575081600260038110151561134b57fe5b6020020151600260038110151561135e57fe5b6020020151600281111561136e57fe5b82600160038110151561137d57fe5b6020020151600160038110151561139057fe5b602002015160028111156113a057fe5b145b80156113eb5750600060028111156113b657fe5b8260006003811015156113c557fe5b602002015160006003811015156113d857fe5b602002015160028111156113e857fe5b14155b1561141e578160006003811015156113ff57fe5b6020020151600060038110151561141257fe5b60200201519050611571565b81600160038110151561142d57fe5b6020020151600160038110151561144057fe5b6020020151600281111561145057fe5b82600060038110151561145f57fe5b6020020151600260038110151561147257fe5b6020020151600281111561148257fe5b1480156114f0575081600260038110151561149957fe5b602002015160006003811015156114ac57fe5b602002015160028111156114bc57fe5b8260016003811015156114cb57fe5b602002015160016003811015156114de57fe5b602002015160028111156114ee57fe5b145b801561153957506000600281111561150457fe5b82600060038110151561151357fe5b6020020151600260038110151561152657fe5b6020020151600281111561153657fe5b14155b1561156c5781600060038110151561154d57fe5b6020020151600260038110151561156057fe5b60200201519050611571565b600090505b919050565b60008060008091505b60038260ff16101561160857600090505b60038160ff1610156115fb57600060028111156115a957fe5b848360ff166003811015156115ba57fe5b60200201518260ff166003811015156115cf57fe5b602002015160028111156115df57fe5b14156115ee576000925061160d565b8080600101915050611590565b818060010192505061157f565b600192505b5050919050565b6101a060405190810160405280600073ffffffffffffffffffffffffffffffffffffffff168152602001600073ffffffffffffffffffffffffffffffffffffffff1681526020016000600381111561166857fe5b81526020016000600281111561167a57fe5b81526020016116876116db565b81525090565b82600381019282156116ca579160200282015b828111156116c9578251829060036116b992919061170a565b50916020019190600101906116a0565b5b5090506116d791906117ac565b5090565b610120604051908101604052806003905b6116f46117d8565b8152602001906001900390816116ec5790505090565b826003601f0160209004810192821561179b5791602002820160005b8382111561176c57835183826101000a81548160ff0219169083600281111561174b57fe5b02179055509260200192600101602081600001049283019260010302611726565b80156117995782816101000a81549060ff021916905560010160208160000104928301926001030261176c565b505b5090506117a891906117fb565b5090565b6117d591905b808211156117d157600081816117c8919061182b565b506001016117b2565b5090565b90565b606060405190810160405280600390602082028038833980820191505090505090565b61182891905b8082111561182457600081816101000a81549060ff021916905550600101611801565b5090565b90565b50600090555600a165627a7a723058207cf82d5962ed8d05f86d4d710dafca0ffc19e87e6f4d6abe46a6f3092b4e15ee0029",
  "source": "pragma solidity ^0.4.24;\n\nimport \"./TicTacToeToken.sol\";\n\n// TicTacToe is a solidity implementation of the tic tac toe game.\n// You can find the rules at https://en.wikipedia.org/wiki/Tic-tac-toe\ncontract TicTacToe {\n\n    // Players enumerates all possible players\n    enum Players { None, PlayerOne, PlayerTwo }\n    // Winners enumerates all possible winners\n    enum Winners { None, PlayerOne, PlayerTwo, Draw }\n\n    // Game stores the state of a round of tic tac toe.\n    // As long as `winner` is `None`, the game is not over.\n    // `playerTurn` defines who may go next.\n    // Player one must make the first move.\n    // The `board` has the size 3x3 and in each cell, a player\n    // can be listed. Initializes as `None` player, as that is the\n    // first element in the enumeration.\n    // That means that players are free to fill in any cell at the\n    // start of the game.\n    struct Game {\n        address playerOne;\n        address playerTwo;\n        Winners winner;\n        Players playerTurn;\n        Players[3][3] board;\n    }\n\n    // games stores all the games.\n    // Games that are already over as well as games that are still running.\n    // It is possible to iterate over all games, as the keys of the mapping\n    // are known to be the integers from `1` to `nrOfGames`.\n     mapping(uint256 => Game) private games;\n    // nrOfGames stores the total number of games in this contract.\n    uint256 private nrOfGames;\n\n    // GameCreated signals that `creator` created a new game with this `gameId`.\n    event GameCreated(uint256 gameId, address creator);\n    // PlayerJoinedGame signals that `player` joined the game with the id `gameId`.\n    // That player has the player number `playerNumber` in that game.\n    event PlayerJoinedGame(uint256 gameId, address player, uint8 playerNumber);\n    // PlayerMadeMove signals that `player` filled in the board of the game with\n    // the id `gameId`. She did so at the coordinates `xCoordinate`, `yCoordinate`.\n    event PlayerMadeMove(uint256 gameId, address player, uint xCoordinate, uint yCoordinate);\n    // GameOver signals that the game with the id `gameId` is over.\n    // The winner is indicated by `winner`. No more moves are allowed in this game.\n    event GameOver(uint256 gameId, Winners winner);\n\n\n    //buying a token    \n    function buyToken(address to, uint value) public returns(bool success){\n        TicTacToeToken token;\n        success = token.transfer(to,value);\n\n        return success;\n    }\n\n    // newGame creates a new game and returns the new game's `gameId`.\n    // The `gameId` is required in subsequent calls to identify the game.\n    function newGame() public returns (uint256 gameId) {\n        Game memory game;\n        game.playerTurn = Players.PlayerOne;\n\n        nrOfGames++;\n        games[nrOfGames] = game;\n\n        emit GameCreated(nrOfGames, msg.sender);\n\n        return nrOfGames;\n    }\n\n    // joinGame lets the sender of the message join the game with the id `gameId`.\n    // It returns `success = true` when joining the game was possible and\n    // `false` otherwise.\n    // `reason` indicates why a game was joined or not joined.\n    function joinGame(uint256 _gameId) public returns (bool success, string reason) {\n        if (_gameId > nrOfGames) {\n            return (false, \"No such game exists.\");\n        }\n\n        address player = msg.sender;\n        Game storage game = games[_gameId];\n\n        // Assign the new player to slot 1 if it is still available.\n        if (game.playerOne == address(0)) {\n            game.playerOne = player;\n            emit PlayerJoinedGame(_gameId, player, uint8(Players.PlayerOne));\n\n            return (true, \"Joined as player one.\");\n        }\n\n        // If slot 1 is taken, assign the new player to slot 2 if it is still available.\n        if (game.playerTwo == address(0)) {\n            game.playerTwo = player;\n            emit PlayerJoinedGame(_gameId, player, uint8(Players.PlayerTwo));\n\n            return (true, \"Joined as player two. Player one can make the first move.\");\n        }\n\n        return (false, \"All seats taken.\");\n    }\n\n    // makeMove inserts a player on the game board.\n    // The player is identified as the sender of the message.\n    function makeMove(uint256 _gameId, uint _xCoordinate, uint _yCoordinate) public returns (bool success, string reason) {\n        if (_gameId > nrOfGames) {\n            return (false, \"No such game exists.\");\n        }\n\n        Game storage game = games[_gameId];\n\n        // Any winner other than `None` means that no more moves are allowed.\n        if (game.winner != Winners.None) {\n            return (false, \"The game has already ended.\");\n        }\n\n        // Only the player whose turn it is may make a move.\n        if (msg.sender != getCurrentPlayer(game)) {\n            // TODO: what if the player is not present in the game at all?\n            return (false, \"It is not your turn.\");\n        }\n\n        // Players can only make moves in cells on the board that have not been played before.\n        if (game.board[_xCoordinate][_yCoordinate] != Players.None) {\n            return (false, \"There is already a mark at the given coordinates.\");\n        }\n\n        // Now the move is recorded and the according event emitted.\n        game.board[_xCoordinate][_yCoordinate] = game.playerTurn;\n        emit PlayerMadeMove(_gameId, msg.sender, _xCoordinate, _yCoordinate);\n\n        // Check if there is a winner now that we have a new move.\n        Winners winner = calculateWinner(game.board);\n        if (winner != Winners.None) {\n            // If there is a winner (can be a `Draw`) it must be recorded in the game and\n            // the corresponding event must be emitted.\n            game.winner = winner;\n            emit GameOver(_gameId, winner);\n\n            return (true, \"The game is over.\");\n        }\n\n        // A move was made and there is no winner yet.\n        // The next player should make her move.\n        nextPlayer(game);\n\n        return (true, \"\");\n    }\n\n    // getCurrentPlayer returns the address of the player that should make the next move.\n    // Returns the `0x0` address if it is no player's turn.\n    function getCurrentPlayer(Game storage _game) private view returns (address player) {\n        if (_game.playerTurn == Players.PlayerOne) {\n            return _game.playerOne;\n        }\n\n        if (_game.playerTurn == Players.PlayerTwo) {\n            return _game.playerTwo;\n        }\n\n        return address(0);\n    }\n\n    // calculateWinner returns the winner on the given board.\n    // The returned winner can be `None` in which case there is no winner and no draw.\n    function calculateWinner(Players[3][3] memory _board) private pure returns (Winners winner) {\n        // First we check if there is a victory in a row.\n        // If so, convert `Players` to `Winners`\n        // Subsequently we do the same for columns and diagonals.\n        Players player = winnerInRow(_board);\n        if (player == Players.PlayerOne) {\n            return Winners.PlayerOne;\n        }\n        if (player == Players.PlayerTwo) {\n            return Winners.PlayerTwo;\n        }\n\n        player = winnerInColumn(_board);\n        if (player == Players.PlayerOne) {\n            return Winners.PlayerOne;\n        }\n        if (player == Players.PlayerTwo) {\n            return Winners.PlayerTwo;\n        }\n\n        player = winnerInDiagonal(_board);\n        if (player == Players.PlayerOne) {\n            return Winners.PlayerOne;\n        }   \n        if (player == Players.PlayerTwo) {\n            return Winners.PlayerTwo;\n        }\n\n        // If there is no winner and no more space on the board,\n        // then it is a draw.\n        if (isBoardFull(_board)) {\n            return Winners.Draw;\n        }\n\n        return Winners.None;\n    }\n\n    // winnerInRow returns the player that wins in any row.\n    // To win in a row, all cells in the row must belong to the same player\n    // and that player must not be the `None` player.\n    function winnerInRow(Players[3][3] memory _board) private pure returns (Players winner) {\n        for (uint8 x = 0; x < 3; x++) {\n            if (\n                _board[x][0] == _board[x][1]\n                && _board[x][1]  == _board[x][2]\n                && _board[x][0] != Players.None\n            ) {\n                return _board[x][0];\n            }\n        }\n\n        return Players.None;\n    }\n\n    // winnerInColumn returns the player that wins in any column.\n    // To win in a column, all cells in the column must belong to the same player\n    // and that player must not be the `None` player.\n    function winnerInColumn(Players[3][3] memory _board) private pure returns (Players winner) {\n        for (uint8 y = 0; y < 3; y++) {\n            if (\n                _board[0][y] == _board[1][y]\n                && _board[1][y] == _board[2][y]\n                && _board[0][y] != Players.None\n            ) {\n                return _board[0][y];\n            }\n        }\n\n        return Players.None;\n    }\n\n    // winnerInDiagoral returns the player that wins in any diagonal.\n    // To win in a diagonal, all cells in the diaggonal must belong to the same player\n    // and that player must not be the `None` player.\n    function winnerInDiagonal(Players[3][3] memory _board) private pure returns (Players winner) {\n        if (\n            _board[0][0] == _board[1][1]\n            && _board[1][1] == _board[2][2]\n            && _board[0][0] != Players.None\n        ) {\n            return _board[0][0];\n        }\n\n        if (\n            _board[0][2] == _board[1][1]\n            && _board[1][1] == _board[2][0]\n            && _board[0][2] != Players.None\n        ) {\n            return _board[0][2];\n        }\n\n        return Players.None;\n    }\n\n    // isBoardFull returns true if all cells of the board belong to a player other\n    // than `None`.\n    function isBoardFull(Players[3][3] memory _board) private pure returns (bool isFull) {\n        for (uint8 x = 0; x < 3; x++) {\n            for (uint8 y = 0; y < 3; y++) {\n                if (_board[x][y] == Players.None) {\n                    return false;\n                }\n            }\n        }\n\n        return true;\n    }\n\n    // nextPlayer changes whose turn it is for the given `_game`.\n    function nextPlayer(Game storage _game) private {\n        if (_game.playerTurn == Players.PlayerOne) {\n            _game.playerTurn = Players.PlayerTwo;\n        } else {\n            _game.playerTurn = Players.PlayerOne;\n        }\n    }\n\n}\n",
  "sourcePath": "/home/nimesh/Desktop/daap/contracts/TicTacToe.sol",
  "compiler": {
    "name": "solc",
    "version": "0.4.24+commit.e67f0147.Emscripten.clang"
  },
  "schemaVersion": "2.0.1",
  "updatedAt": "2019-07-08T02:04:02.393Z"
}